:100000000C942B000C946F090C9453000C94530027
:100010000C9453000C9453000C9453000C94530014
:100020000C9453000C9453000C9453000C9423092B
:100030000C9453000C9453000C9453000C945300F4
:100040000C9453000C9453000C9453000C945300E4
:100050000C945300A50911241FBECFE5D8E0DEBFE4
:10006000CDBF10E0A0E6B0E0E6EFF3E102C00590FE
:100070000D92A036B107D9F712E0A0E6B0E001C0BA
:100080001D92A73EB107E1F710E0C6E5D0E004C03D
:100090002297FE010E94F509C435D107C9F70E94D5
:1000A0003A080C94F9090C9400009CB39923E9F7E1
:1000B00090E09FBB8EBB6DBBF894E29AE19A789476
:1000C00008959CB39923E9F790E09FBB8EBBF89409
:1000D000E09A78948DB3089580E487B987E886B96B
:1000E000089597B18770987F982B97B9369A36996B
:1000F000FECF84B195B108950F931F93DC01CB011E
:10010000FC01B801C901E017F107A9F06E1B7F0BD4
:100110001616170644F4433031F1423031F14423CE
:1001200031F582E039C0423021F1433021F14130D4
:1001300021F582E031C0A217B30709F18A1B9B0B9E
:100140001816190644F44423E1F04130E1F042303E
:10015000E1F482E021C04130D1F04423D1F04330BA
:10016000D1F482E019C083E017C080E015C081E0BF
:1001700013C083E011C080E00FC081E00DC084E0B7
:100180000BC083E009C080E007C081E005C083E0C8
:1001900003C080E001C081E01F910F9108950F938B
:1001A0001F938B019C01CB0120FD1CC062307105A7
:1001B00089F122E030E0B901681B790BCB011816F8
:1001C000190644F44330A9F14230A9F14423A9F5BA
:1001D00082E04EC0423099F1433099F1413099F5B7
:1001E00082E046C00097B1F0909581959F4F181618
:1001F000190644F4433049F1423049F1442349F5AA
:1002000082E036C0423039F1433039F1413039F5BE
:1002100082E02EC082E090E0821B930B1816190634
:1002200004F5442301F1413001F1423001F582E04F
:100230001FC083E01DC080E01BC081E019C083E0C7
:1002400017C080E015C081E013C083E011C080E0DA
:100250000FC081E00DC083E00BC080E009C081E0E9
:1002600007C084E005C083E003C080E001C081E0F6
:100270001F910F910895B49B2AC0B59B28C0B69BCF
:1002800026C081E185BB0895B59B23C0B69B21C0E4
:1002900089E085BB0895B5991EC0B69B1CC089E056
:1002A00085BB0895B59B19C0B69917C082E185BB7F
:1002B0000895B59914C0B69912C082E185BB08951E
:1002C000B5990FC0B6990DC08AE085BB0895B49B5F
:1002D000DBCFB49BE0CFB499E5CFB499EACFB49B20
:1002E000EFCF0895B49B2AC0B59B28C0B69B26C00B
:1002F0008AE085BB0895B59B23C0B69B21C088E0EA
:1003000085BB0895B5991EC0B69B1CC088E085BB0F
:100310000895B59B19C0B69917C082E085BB0895B2
:10032000B59914C0B69912C082E085BB0895B599FD
:100330000FC0B6990DC08AE085BB0895B49BDBCF92
:10034000B49BE0CFB499E5CFB499EACFB49BEFCF9B
:10035000089515BA80E48BBB8FEF93EDA0E3815035
:100360009040A040E1F700C000001BBA089515BA04
:1003700080E88BBB8FEF93EDA0E381509040A040CD
:10038000E1F700C000001BBA089583E090E090936D
:10039000B5028093B4028CE090E09093B302809316
:1003A000B20282E185BBB39915C0B79913C0B49B63
:1003B00011C0B69B0FC0B59B0DC08AE090E0909332
:1003C000B5028093B4028CE090E09093B3028093E6
:1003D000B20208958FE798E3A1E081509040A040D9
:1003E000E1F700C00000DFCF8DE090E09093B50210
:1003F0008093B40285E090E09093B3028093B202C0
:1004000089E085BBB39915C0B79913C0B49B11C0DF
:10041000B69B0FC0B59B0DC08AE090E09093B502EB
:100420008093B4028CE090E09093B3028093B20288
:1004300008958FE798E3A1E081509040A040E1F754
:1004400000C00000DFCF85E090E09093B50280937C
:10045000B40286E090E09093B3028093B20281E10F
:1004600085BBB39B02C0B79913C0B49B11C0B69BA8
:100470000FC0B59B0DC08AE090E09093B5028093C9
:10048000B4028CE090E09093B3028093B20208959E
:100490008FE798E3A1E081509040A040E1F700C0D1
:1004A0000000DFCF85E090E09093B5028093B40226
:1004B00086E090E09093B3028093B20289E085BB1E
:1004C000B39915C0B79913C0B49B11C0B69B0FC0A8
:1004D000B59B0DC08AE090E09093B5028093B40282
:1004E0008CE090E09093B3028093B20208958FEF76
:1004F00099EFA0E081509040A040E1F700C00000DB
:10050000DFCFCF93C82F813061F0813038F0823057
:1005100059F0833059F422E030E008C021E030E0A7
:1005200005C023E030E002C024E030E08091B80252
:10053000813081F0813058F0823019F0833061F4DD
:1005400003C02450304008C02250304005C0215024
:10055000304002C023503040C901049664E070E08E
:100560000E94CC0981309105B1F0823091051CF4D4
:10057000009741F012C08230910539F08330910527
:1005800061F406C00E94230208C00E94520205C006
:100590000E94F40102C00E94C501C093B802CF912D
:1005A000089543E047BB8FEF84BB15BA8CEF88BB3F
:1005B00080EF8ABB1BBA83B7826683BF89B781602D
:1005C00089BF8AE090E09093B5028093B4022CE05A
:1005D00030E03093B3022093B2029093B102809343
:1005E000B0021092BE021092BD028FEF9FEF909367
:1005F000BA028093B9021092BC021092BB0282E050
:100600008093B8021092B70284E081BB82BB80E481
:100610008BBF45BF789408958091BB02982F990FA6
:10062000890F9091B902890FB49902C0B69B08C096
:10063000B49902C0B59B04C0B5990FC0B6990DC05E
:1006400060E00E9455008FEF97EAA1E6815090404C
:10065000A040E1F700C00000089561E00E9455004D
:1006600008950F931F939C01DB01CA01BA01CD01CC
:100670001A161B0694F4AD0141505040FB01EE0FD9
:10068000FF1FEE0FFF1FE20FF31FE40FF51FE081C6
:10069000E13019F48B019A0143C01616170694F441
:1006A000FB013197EE0FFF1FEE0FFF1FE20FF31F4D
:1006B000E80FF91F4081413029F48B0101501040AF
:1006C0009C012EC06230710594F4FB013196EE0F4F
:1006D000FF1FEE0FFF1FE20FF31FE80FF91F40810E
:1006E000413029F48B010F5F1F4F9C0119C08230EC
:1006F00091059CF4AC014F5F5F4FCB01880F991FB0
:10070000880F991F820F931FFC01E40FF51F808152
:10071000813019F48B019A0103C00FEF1FEF98018C
:10072000602F712F822F932F1F910F9108952F9279
:100730003F924F925F926F927F928F929F92AF9271
:10074000BF92CF92DF92EF92FF920F931F93CF93BE
:10075000DF93CDB7DEB762970FB6F894DEBF0FBE5A
:10076000CDBF60E070E00CE010E028EC30E04FEF2F
:100770005FEF0CC02D933D93419351930197D1F7B7
:100780006F5F7F4F6C30710509F454C0FB01EE0FB1
:10079000FF1FDF01A60FB71FAA0FBB1FAA0FBB1FAA
:1007A000AA0FBB1FAE59BF4FE60FF71FEE0FFF1F7B
:1007B000EE0FFF1FEE0FFF1FEE57FE4FC801DACFFF
:1007C000A25BBF4F55237CF099236CF04330510559
:1007D00054F4843091053CF411961C930E93579673
:1007E0001C930E9356970196332394F0992384F02B
:1007F000233031056CF4843091056CF415961C930C
:100800000E931497FD01EA5BFF4F11830083D8CF4D
:1008100084309105ACF22F5F3F4F6F5F7F4F2330E5
:10082000310581F49E012C5F3F4F388B2F872224A6
:100830003324A9C061E070E020E030E0EE24FF2422
:1008400001E010E0AB01C901880F991F820F931FCF
:10085000880F991F880F991F860F971F880F991F60
:10086000DC01AE59BF4FC701ADCF33E0E316F10451
:1008700061F4AF85B8891C92E989FA89E230F10503
:1008800049F41F01F1E0FC8772C0882D0E946100CD
:10089000D5018C93F5018081882309F057C04D85DF
:1008A0005E85441655060CF451C03401B401645001
:1008B000704067010894C108D10887010F5F1F4F7E
:1008C000C401880F991F880D991D1C01220C331C2F
:1008D000220C331C96010C151D058CF1C101860FED
:1008E000971F880F991FDC01AE59BF4FCB01880FAE
:1008F000991F860F971F880F991F880F991F860DC4
:10090000971DFC01EE0FFF1FEE59FF4F55237CF0A2
:1009100033236CF04330510554F4243031053CF45A
:1009200088EC90E011969C938E93918380832F5F47
:100930003F4F1696E85BFF4F021713073CF74F5FD8
:100940005F4F6F5F7F4F4416550624F60894E11CF5
:10095000F11C0894A11CB11CA3E0B0E08A0E9B1E00
:10096000B4E0EB16F10409F080CF29883A880894A6
:10097000211C311CEF85F8893496F88BEF87F3E062
:100980002F163104D1F05101AA0CBB1CAA0CBB1CC0
:1009900021E030E02C0F3D1FA20EB31E4101EE24DA
:1009A000FF24B101615070407E876D87210108945A
:1009B000411C511C3A8A298A58CFE2E6F0E08F01A7
:1009C0008AE991E0118210827A96E817F907D1F747
:1009D000085E1F4FEE24FF248824992451C0DA01B9
:1009E0008D919D91AD01DB012D913C911197820F6D
:1009F000931F208131818217930734F49183808380
:100A0000D3011196FC92EE92329622E030E0620E13
:100A1000731E0417150719F70894C11CD11C685ED2
:100A20007F4F3CE0C316D10411F1A5019601220FBE
:100A3000331FC9018C0D9D1D880F991F880F991FA9
:100A4000880F991FFC01EE59FF4FC9018C0D9D1DA8
:100A5000880F991F880F991F880F991F0F2EF2E892
:100A60006F2EF1E07F2EF02D680E791EB8CF08941E
:100A7000E11CF11C085E1F4F6CE0E616F104D1F09A
:100A8000B701660F771F6E597F4F6401C701880F4A
:100A9000991F8E0D9F1D880F991F880F991F880F12
:100AA000991F0F2EF2E6AF2EF0E0BF2EF02DA80E0C
:100AB000B91EBBCF109261001092600020E030E0C0
:100AC00040E050E0662477244424689441F80F2ED7
:100AD000FFEBEF2EF2E0FF2EF02D222403C0282D95
:100AE0003A2DAB010091600010916100F801EE0F0A
:100AF000FF1FEE0FFF1FE154FD4F518340833383EF
:100B00002283C80101969093610080936000CA011E
:100B1000880F991F880F991F820F931FA1E0B0E0E3
:100B2000AC0FBD1F8A0F9B1FFC011082C901322F21
:100B3000292FCD01632F722F0E943103882EA92EF9
:100B4000FFEF6F3F7F0709F059C09E012D5F3F4FB8
:100B5000CC24C394A3010CC0C42C03C0C42C01C07A
:100B6000C42C4F5F5F4F2C5F3F4F43305105C9F09E
:100B7000D901F90132978081813071F3CA01880F60
:100B8000991F880F991FE1E0F0E0EC0FFD1F8E0F19
:100B90009F1FFC018181813009F38C91813009F71D
:100BA000DFCFF2E0CF1659F5112364F1F801EE0F13
:100BB000FF1FEE0FFF1FEE0DFF1D4081518162816F
:100BC0007381CE0101960E943103DC01CB012FEF2E
:100BD0008F3F920761F0000F111F000F111FF801E6
:100BE000E154FD4F22813381408151817BCF0150FF
:100BF00010403FEF0F3F1307C9F604C0C22CCC20B2
:100C000009F46DCF62960FB6F894DEBF0FBECDBF6C
:100C1000DF91CF911F910F91FF90EF90DF90CF90D8
:100C2000BF90AF909F908F907F906F905F904F900C
:100C30003F902F900895CF92DF92EF92FF920F9303
:100C40001F93CF93DF936B017C01DA01C901F60199
:100C5000A7018C019701220F331F2E0D3F1D2C0D74
:100C60003D1DCD01880F991F8A0F9B1FBC01600F8E
:100C7000711FC901880F991F820F931F880F991F39
:100C8000880F991F860F971F880F991F8E599F4FA6
:100C9000EC01888199818F3B91052CF06C2D7F2F81
:100CA0008E2D952F26C0C901880F991F820F931F83
:100CB000FC01EE0FFF1FEE0FFF1F6E0F7F1FFB01EA
:100CC000EE0FFF1FEE57FE4F80819181DFEF8F3FC8
:100CD0009D0729F4602F712F8A2F9B2F0AC063E094
:100CE00070E00E94CC099C01AB01C701B6010E94D3
:100CF0001B06DF91CF911F910F91FF90EF90DF9036
:100D0000CF9008950F931F93CF932FEF33ED40E3D0
:100D1000215030404040E1F700C000008091B60211
:100D2000823009F44FC0833030F4882359F0813089
:100D300009F0AEC01FC0833009F466C0843009F0EA
:100D4000A7C084C00E940C038FEF93EDA0E38150F5
:100D50009040A040E1F700C000006091B90270919E
:100D6000BA028091BB029091BC024091B8020E94ED
:100D7000CF009CC0C091B8026091B9027091BA02D4
:100D80008091BB029091BC02E091BD02F091BE0245
:100D9000EE0FFF1FEE0FFF1FE154FD4F2081318149
:100DA000428153810E941B068B019C016091B90214
:100DB0007091BA028091BB029091BC024C2F0E94AC
:100DC0007C0074C0C091B8026091B9027091BA02FF
:100DD0008091BB029091BC022091AA023091AB029B
:100DE0004091AC025091AD020E941B068B019C0108
:100DF0006091B9027091BA028091BB029091BC02DD
:100E00004C2F0E947C0052C0C091B8026091B90280
:100E10007091BA028091BB029091BC022091A6020F
:100E20003091A7024091A8025091A9020E941B068E
:100E30008B019C016091B9027091BA028091BB0252
:100E40009091BC024C2F0E947C0030C0C091B8022F
:100E50006091B9027091BA028091BB029091BC027C
:100E60002091A2023091A3024091A4025091A502C8
:100E70000E941B068B019C016091B9027091BA021D
:100E80008091BB029091BC024C2F0E947C000EC04E
:100E900092E088B3892788BB2FEF39E648E12150DB
:100EA00030404040E1F700C00000F3CFCF911F91E8
:100EB0000F9108958091B602882339F515BA0E94E2
:100EC000970381E08093B6028FEF9FEF9093BA0271
:100ED0008093B9021092BC021092BB0282E0809310
:100EE000B8021092B7020E946C0083E088BB8AEAC5
:100EF00096EEA6E9B1E081509040A040B040D9F70D
:100F000000000E94A90118BA08958130C9F415BAE9
:100F10008091BD029091BE0201969093BE02809393
:100F2000BD0220916000309161008217930724F088
:100F300083E08093B702089581E08093B70208951B
:100F4000823081F515BA83E00E9481020BC00E94B5
:100F50003B018FEF99E6A8E181509040A040E1F776
:100F600000C00000B399F3CFB799F1CFB49BEFCF96
:100F7000B69BEDCFB59BEBCF0E94A901B39B55C0AB
:100F8000B79B53C081E08093B7028FEF97EAA1E649
:100F900081509040A040E1F700C0000083E08093C2
:100FA000B6020895833019F515BA0E9481020BC06C
:100FB0000E943B018FEF91EEA4E081509040A04051
:100FC000E1F700C0000080E00E947100A3E08132E0
:100FD0009A0770F784E08093B6020E94B701B39B32
:100FE00030C0B79B2EC081E08093B7020895843053
:100FF00009F03FC015BA82E00E94810202C00E943F
:101000003B01B399FCCFB799FACFB49BF8CFB69B0D
:10101000F6CFB59BF4CF0E94A901B39B1EC0B79B2E
:101020001CC083E08093B70208950E9472018FEF85
:1010300091EEA4E081509040A040E1F700C0000094
:101040009DCF0E9472018FEF91EEA4E081509040FD
:10105000A040E1F700C00000C2CF0E9472018FEFF4
:1010600091EEA4E081509040A040E1F700C0000064
:10107000D4CF08951092B6020E94D102C2E00F2E82
:10108000F3E0DF2EF02DD1E00BEB12E00F2EF9EBA9
:10109000EF2EF2E0FF2EF02D8091B602813051F458
:1010A00080E00E9471008233910520F4C093B60263
:1010B0000E94B7018091B702813009F44AC08130A3
:1010C00038F0823009F4B1C0833009F0B2C0B0C04A
:1010D0000E943B01B39BADC0B79BABC015BA8FEF6D
:1010E00091EEA4E081509040A040E1F700C00000E4
:1010F000B39B9FC0B79B9DC08091B802813081F0A7
:10110000813028F0823099F0833001F519C0D80180
:101110008D919C911197019711969C938E9316C077
:10112000F801808191810196918380830FC0D7015E
:101130008D919C911197019611969C938E9306C068
:10114000F70180819181019791838083D093B702C9
:1011500070C015BA0E9482068230B1F0833030F43C
:10116000882369F0813009F064C029C0833009F414
:1011700041C0843009F05DC0C093B7025AC00E94DC
:1011800023021092B70255C00E94F4018091B80268
:10119000813051F0813070F0823019F0833061F489
:1011A00006C0D093B80208C0D092B80205C0109211
:1011B000B80202C0C093B8021092B7023AC00E94AF
:1011C000C5018091B802813081F0813040F08230D9
:1011D00019F0833061F406C01092B80208C0D092B2
:1011E000B80205C0D093B80202C0C093B8021092F2
:1011F000B7021FC00E9452028091B802813081F074
:10120000813040F0823019F0833061F406C0D09212
:10121000B80208C0D093B80205C0C093B80202C09B
:101220001092B8021092B70204C00E945A0701C07F
:1012300015BA8FEF90E7A2E081509040A040E1F70F
:1012400000C0000029CF1F920F920FB60F921124F9
:101250002F933F938F939F93F8948091AE02909138
:10126000AF0201969093AF028093AE022091B40238
:101270003091B5028217930709F4AA982091AE0223
:101280003091AF028091B2029091B30228173907D2
:1012900009F4AD982091AE023091AF028091B00276
:1012A0009091B1022817390709F4DD988091AE02B8
:1012B0009091AF028431910541F41092AF021092E7
:1012C000AE0285B3846285BBDD9A78949F918F913D
:1012D0003F912F910F900FBE0F901F9018951F9266
:1012E0000F920FB60F9211242F933F934F935F935A
:1012F0006F937F938F939F93AF93BF93EF93FF93DE
:101300000E94970381E08093B6028FEF9FEF909346
:10131000BA028093B9021092BC021092BB0282E022
:101320008093B8021092B702FF91EF91BF91AF91F5
:101330009F918F917F916F915F914F913F912F91ED
:101340000F900FBE0F901F9018951092C002109230
:10135000BF0282E090E09093C2028093C10210929B
:10136000AB021092AA0221E030E03093AD0220934C
:10137000AC021092A7021092A6029093A902809349
:10138000A8029093A3028093A20283E090E090933E
:10139000A5028093A402089597FB092E07260AD080
:1013A00077FD04D00CD006D000201AF4709561951A
:1013B0007F4F0895F6F7909581959F4F0895AA1B4A
:1013C000BB1B51E107C0AA1FBB1FA617B70710F030
:1013D000A61BB70B881F991F5A95A9F78095909562
:1013E000BC01CD010895EE0FFF1F0590F491E02D93
:0613F0000994F894FFCF00
:00000001FF
