S010000067726964626173652E73726563D3
S11300000C942B000C940D0A0C9453000C94530084
S11300100C9453000C94EA090C9453000C94530070
S11300200C9453000C9453000C9453000C94A609A4
S11300300C9453000C9453000C9453000C945300F0
S11300400C9453000C9453000C9453000C945300E0
S11300500C945300490B11241FBECFE5D8E0DEBF3A
S1130060CDBF10E0A0E6B0E0EAE8F7E102C00590F9
S11300700D92A036B107D9F715E0A0E6B0E001C0B3
S11300801D92A73DB107E1F710E0C6E5D0E004C03A
S11300902297FE010E94BF0BC435D107C9F70E9405
S11300A06A0A0C94C30B0C9400009093450580934A
S11300B04405709343056093420508959CB39923C6
S11300C0E9F790E09FBB8EBB6DBBF894E29AE19A8E
S11300D0789408959CB39923E9F790E09FBB8EBB75
S11300E0F894E09A78948DB308958FEF9FEF9093EE
S11300F04A058093490510924C0510924B0582E005
S11301008093480510924705089580E487B987E8ED
S113011086B9089597B18770987F892B87B9369AE5
S11301203699FECF84B195B1089590914B05892FEE
S1130130880F880F890F90914905890FB49902C0DF
S1130140B69B08C0B49902C0B59B04C0B5990FC052
S1130150B6990DC060E00E945E008FEF99E6A8E1B9
S113016081509040A040E1F700C00000089561E094
S11301700E945E0008950F931F93CF93DF93DC01D9
S1130180CB01EC01B801C9010C171D0799F06C1BD8
S11301907D0B161617063CF4433049F1423019F131
S11301A04423E9F022C0423011F14330E1F0413000
S11301B0E1F415C02A173B07A1F08A1B9B0B181604
S11301C019063CF4442399F0413069F0423069F453
S11301D006C0413061F0442331F0433031F482E011
S11301E007C084E005C080E003C081E001C083E073
S11301F0DF91CF911F910F9108950F931F938B015E
S11302009C01CB0120FD0BC064307105E1F024E0BA
S113021030E0261B370B121613063CF00DC0009776
S113022091F01616170641F03CF04330E9F04230E5
S1130230E9F04423A9F01CC04230B1F04330B1F0DE
S11302404130B1F40DC085E090E0821B930B181689
S1130250190644F4442341F0413041F0423041F462
S113026082E007C084E005C083E003C080E001C0F1
S113027081E01F910F910895B49B22C0B59B20C0CB
S1130280B69B1EC081E11AC0B59B1CC0B69915C0AF
S113029019C0B59919C0B69910C016C0B59B16C03F
S11302A0B69914C004C0B59913C0B69911C080E1C1
S11302B005C0B5990FC0B6990DC081E085BB0895FE
S11302C0B49BE2CFB49BE5CFB499E8CFB499EBCF1C
S11302D0B49BEFCF0895B49B44C0B59B42C0B6997C
S11302E03DC03FC0B59B3FC0B69B3DC081E037C019
S11302F0B5993BC0B69B39C080E1B49B04C0B59BA3
S113030002C0B69938C085BB2FEF39EF40E02150C9
S113031030404040E1F700C00000EFCFB59B27C05C
S1130320B69925C080E11BC0B59923C0B69921C0F8
S113033081E0B49B04C0B59B02C0B6991CC085BBC8
S11303402FEF39EF40E0215030404040E1F700C04A
S11303500000EFCFB5990FC0B6990DC08AE085BBF8
S11303600895B49BBFCFB49BC3CFB499D7CFB499EE
S1130370DBCFB49BEFCF08958AE090E090934105E2
S11303808093400515BA80E48BBB8FEF93EDA0E317
S113039081509040A040E1F700C000001BBA0895CE
S11303A015BA80E88BBB8FEF93EDA0E381509040AA
S11303B0A040E1F700C0000083E090E09093410585
S11303C080934005089583E090E0909345058093E1
S11303D044058CE090E0909343058093420580911E
S11303E03105882361F086E090E090934505809381
S11303F0440582E190E0909343058093420582E1B5
S113040085BBB39915C0B79913C0B49B11C0B69BF3
S11304100FC0B59B0DC08FE090E09093450580938D
S1130420440582E190E0909343058093420508954A
S11304308FE798E3A1E081509040A040E1F700C02D
S11304400000DFCF8DE090E0909345058093440554
S113045085E090E0909343058093420580913105B7
S1130460882361F082E190E09093450580934405F0
S113047087E090E0909343058093420589E085BB33
S1130480B39915C0B79913C0B49B11C0B69B0FC0E4
S1130490B59B0DC08FE090E0909345058093440593
S11304A082E190E0909343058093420508958FE79D
S11304B098E3A1E081509040A040E1F700C0000023
S11304C0DFCF85E090E0909345058093440586E076
S11304D090E09093430580934205809131058823F1
S11304E061F08AE090E090934505809344058CE0A8
S11304F090E0909343058093420581E185BBB39BD3
S113050002C0B7991CC0B49B1AC0B69B18C0B59959
S113051009C015C0B79915C0B49913C0B69911C0D4
S1130520B5990FC08FE090E0909345058093440502
S113053082E190E090934305809342050895B39B34
S1130540E9CF8FE798E3A1E081509040A040E1F724
S113055000C00000D4CF8AE090E0909345058093DA
S113056044058CE090E0909343058093420580918C
S11305703105882361F08FE090E0909345058093E6
S1130580440581E190E0909343058093420589E01E
S113059085BBB39915C0B79913C0B49B11C0B69B62
S11305A00FC0B59B0DC08FE090E0909345058093FC
S11305B0440582E190E090934305809342050895B9
S11305C08FEF99EFA0E081509040A040E1F700C088
S11305D00000DFCFCF93C82F813081F0813058F0F5
S11305E0823019F0833061F403C024E030E008C0A5
S11305F022E030E005C021E030E002C023E030E03A
S113060080914805813081F0813058F0823019F0B2
S1130610833061F403C02450304008C0225030407D
S113062005C02150304002C023503040C901049617
S113063064E070E00E94960B81309105B1F0823045
S113064091051CF4009741F012C08230910539F0F5
S11306508330910561F406C00E94610208C00E94C3
S1130660AB0205C00E94220202C00E94E301C093B3
S11306704805CF910895CF93C3E0C7BB8FEF84BBE8
S113068015BA8CEF88BB80EF8ABB1BBA83B7826430
S113069083BF85B5856485BD89B7816489BF89E0D9
S11306A090E090934505809344058CE090E090930E
S11306B04305809342058AE090E09093410580933E
S11306C040050E94750084E081BB82BB80E48BBF3F
S11306D0C5BF7894CF9108950F931F93CF93DF9361
S11306E09C01CA01DB0165307105A4F4EB0121967C
S11306F0FA0113E0EE0FFF1F1A95E1F7E41BF50B67
S1130700E20FF31FEC0FFD1FE081E13019F48A01C1
S11307109E0148C084309105A4F4AC014F5F5F4F43
S1130720FA0173E0EE0FFF1F7A95E1F7E41BF50B76
S1130730E20FF31FEA0FFB1F6081613011F48A019D
S11307402CC01A161B06ACF4AD0141505040FC01FC
S113075063E0EE0FFF1F6A95E1F7E81BF90BE20F68
S1130760F31FE40FF51F6081613019F48C019A01C5
S113077019C0181619069CF40197FC0143E0EE0F0A
S1130780FF1F4A95E1F7E81BF90BE20FF31FEA0F8D
S1130790FB1F2081213019F48C019D0103C00FEF50
S11307A01FEF9801B801C901DF91CF911F910F91FB
S11307B008952F923F924F925F926F927F928F9201
S11307C09F92AF92BF92CF92DF92EF92FF920F93DC
S11307D01F93CF93DF93CDB7DEB7C250D5400FB68A
S11307E0F894DEBF0FBECDBFAE014C5D5F4FC1516B
S11307F0DB4F59834883CF5ED440AE0143515B4FF6
S1130800C351DB4F59834883CD5ED4409E012C5D98
S11308103F4F74E644E650E0421B530BCF50DB4F8E
S113082059834883C15FD44068E717C0F901E80FD2
S1130830F91F7083FA01E80FF91F60830196833270
S11308409105A1F72D5D3F4FC351DB4F488159817D
S1130850CD5ED4402417350709F180E090E0CF50F5
S1130860DB4F48815981C15FD440420F531FDECF13
S11308704430510541F0FD01EE5AF0402083FD0162
S1130880EC58F0402083019709F4DEC1FD01EA5AD7
S1130890F04020832C93AC54BF4FEACF40E050E0AB
S11308A063E270E021E0CA010596869FD001879F2C
S11308B0B00D969FB00D1124A40FB51F84E290E0F3
S11308C08C0F9D1FA80FB91F87E090E0D1CF840142
S11308D00E0D1F1D96E0E916F10449F4F401168289
S11308E0F3E0CF16D104E9F441E04C8F1AC0822F13
S11308F08C0DCE5FDA4F2883C250D540CF5FDA4FDC
S11309003883C150D5400E946A00F8018083CF5FCC
S1130910DA4F3881C150D540CE5FDA4F2881C250BA
S1130920D540F8018081882309F074C0C550DB4F9D
S113093088819981CB5FD440A0E0B0E0A701415009
S11309405040C950DB4F59834883C75FD440F501F9
S1130950E40DF51DC750DB4FF983E883C95FD4402C
S11309601501260C371C4DED5FEF240E351EC950C2
S1130970DB4F48815981C75FD44060E070E000E0FC
S113098010E0C750DB4FE881F981C95FD440E80F1C
S1130990F91FCD50DB4FF983E883C35FD440F101E5
S11309A0EA0FFB1FCB50DB4FF983E883C55FD440CC
S11309B0FFEF8F3F9F07F9F0EFEF4F3F5E07D9F04E
S11309C085309105C1F047305105A9F0CD50DB4F7A
S11309D0E881F981C35FD440E60FF71F3597308370
S11309E0CB50DB4FE881F981C55FD440E00FF11FA4
S11309F0EF5AF04030834F5F5F4F6B5F7F4F01557D
S1130A001F4F6F307105A1F601969396A936B10573
S1130A1009F0ADCF0894E11CF11C44EB50E0A40EA6
S1130A20B51E2B5F233209F052CF0894C11CD11C90
S1130A3087E090E0880E991EE3E2F0E04E0E5F1E20
S1130A4044E250E0640E751E55E0C516D10479F0F9
S1130A5020E0AA24BB24EE24FF24A60141505040E8
S1130A60C550DB4F59834883CB5FD44030CF80E0FF
S1130A7090E0E4E2F0E0EC0FFD1FE80FF91F1082B4
S1130A80849654E08C3E9507A1F7F4E2EF2EF12C06
S1130A90EC0EFD1E60E070E0D7013DC0F501E08082
S1130AA0FD01E20FF31F60806A01C20ED31E062D02
S1130AB010E00E0D111DF601808190E00817190752
S1130AC034F4E60CE082F401E20FF31F60832F5F3D
S1130AD03F4F2332310511F74D5D5F4FC351DB4F5B
S1130AE088819981CD5ED4404817590771F020E080
S1130AF030E05A01A60EB71ECF50DB4F8880998094
S1130B00C15FD440840E951EC9CF6F5F7F4F93960B
S1130B106332710521F0AE014C5D5F4FE8CF109256
S1130B2063001092620040E050E020E030E0E1E039
S1130B30AE2EB12CAC0EBD1EE3E2F0E0AE0EBF1E35
S1130B4006C0A701960103C0AB012FEF3FEF009150
S1130B50620010916300F801EE0FFF1FEE0FFF1FFC
S1130B60E15AFA4F3183208353834283C8010196AB
S1130B709093630080936200F90173E0EE0FFF1F0E
S1130B807A95E1F7E21BF30BE40FF51F81E090E0A7
S1130B908C0F9D1FE80FF91F108269017A01CE01A5
S1130BA00196B701A6010E946C036B017C01B70199
S1130BB09FEFC9169FEFD90621F69E012F5F3F4F85
S1130BC041E011C0F901E80FF91F5081513029F0BB
S1130BD0019686309105B1F701C042E0295F3F4F8D
S1130BE02A153B0519F080E090E0ECCF423029F162
S1130BF027C0F801EE0FFF1FEE0FFF1FE15AFA4F57
S1130C00C080D180E280F380CE010196B701A601B5
S1130C100E946C03DC01CB01EFEF8F3F9E0759F07C
S1130C20CE010196B701A6010E946C036B017C0101
S1130C30A7019B018CCF0150104017FFDACF18C0D9
S1130C40442309F481CF14C04F5F5F4F45305105F1
S1130C5009F029CE04E2602E712C6C0E7D1E230156
S1130C604E010894811C911CCC24DD2434E6F0CE82
S1130C70CE5FDA4F0FB6F894DEBF0FBECDBFDF9163
S1130C80CF911F910F91FF90EF90DF90CF90BF9085
S1130C90AF909F908F907F906F905F904F903F9018
S1130CA02F900895CF92DF92EF92FF92CF93DF932C
S1130CB06B017C01DA01C901E901C701880F991FA1
S1130CC0880F991F8E0D9F1D8C0D9D1DFD01EE0F2C
S1130CD0FF1FEE0FFF1FEA0FFB1F23E230E0829F8E
S1130CE0A001839F500D929F500D1124E40FF51F16
S1130CF0EC59FF4FEC0FFD1F808190E08837910580
S1130D0019F4BE01CD010AC065E070E00E94960BA3
S1130D109C01AB01C701B6010E945206DF91CF913D
S1130D20FF90EF90DF90CF9008950F931F93CF9390
S1130D30809146058230D1F1833030F4882371F0FC
S1130D40813009F094C019C0843009F45BC0843048
S1130D5008F445C0853009F08AC067C00E94950038
S1130D606091490570914A0580914B0590914C051D
S1130D70409148050E94FD0088C06091490570912A
S1130D804A0580914B0590914C05E0914D05F091F9
S1130D904E05EE0FFF1FEE0FFF1FE15BFA4F0081C0
S1130DA0118122813381409148055EC0C09148057C
S1130DB06091490570914A0580914B0590914C05CD
S1130DC0E0914D05F0914E05EE0FFF1FEE0FFF1F52
S1130DD0E15AFA4F208131814281538138C0C09158
S1130DE048056091490570914A0580914B059091A1
S1130DF04C0520913A0530913B0540913C055091BA
S1130E003D0525C0C09148056091490570914A058A
S1130E1080914B0590914C05209136053091370512
S1130E20409138055091390512C0C0914805609130
S1130E30490570914A0580914B0590914C0520918C
S1130E402D0530912E0540912F05509130050E94BB
S1130E5052068B019C016091490570914A0580916D
S1130E604B0590914C054C2F0E94BB000EC092E0A4
S1130E7088B3892788BB2FEF39E648E121503040F9
S1130E804040E1F700C00000F3CFCF911F910F91D4
S1130E9008951092610010926000089582E080939A
S1130EA046050E9475000E94850010924E0510921E
S1130EB04D0583E088BB089580914605882349F455
S1130EC015BA10924E0510924D0581E080934605A7
S1130ED0D6C1813009F0A8C083E00E94EA0215BAA5
S1130EE0B39BD0C1B79BCEC10E9461028FEF91EE3C
S1130EF0A4E081509040A040E1F700C0000015BA82
S1130F008091490590914A05019790934A058093F1
S1130F10490585E090E0909345058093440586E07B
S1130F2090E09093430580934205109261001092E3
S1130F30600046C0B39BB2C1B49BB0C1B69BAEC106
S1130F40B59BACC1B799AAC1E0914D05F0914E058E
S1130F50EE0FFF1FEE0FFF1FE15BFA4F80819181BF
S1130F6001979093370580933605828193819093FE
S1130F703905809338051FC0B49B92C1B69B90C1BC
S1130F80B59B8EC1B79B8CC1E0914D05F0914E0588
S1130F90EE0FFF1FEE0FFF1FE15BFA4F808191817F
S1130FA001979093330580933205828193819093C6
S1130FB03505809334050E94BC010E94D00109C00C
S1130FC08091600090916100A2E08C319A070CF44A
S1130FD0B1CF85E090E0909345058093440586E089
S1130FE090E09093430580934205B39B65C1B79B02
S1130FF063C1B49B61C1B69B5FC1B59B5DC115BAAA
S113100080914D0590914E05019690934E058093E5
S11310104D05843091050CF4E1C00E94D90380E0B1
S113102090E00E944E072AC1823059F415BA80918B
S11310304D0590914E05019690934E0580934D0574
S1131040CDC0833009F06FC015BA0E94EA02B3998B
S113105008C0B79906C0B49B04C0B69B02C0B5993A
S113106037C10E943C018FEF90E7A2E0815090408D
S1131070A040E1F700C00000EACF0E943C018FEFDE
S113108099EFA0E081509040A040E1F700C000003B
S11310908091600090916100A2E08D319A076CF319
S11310A015BA8FEF93EDA0E381509040A040E1F793
S11310B000C000000E94BC011092310585E090E060
S11310C0909345058093440586E090E09093430512
S11310D080934205B39B02C1B79B00C1B49BFEC081
S11310E0B69BFCC0B59BFAC015BA89E090E090931A
S11310F04505809344058CE090E0909343058093EC
S1131100420581E0809347058FEF93EBA4ECB4E0B4
S113111081509040A040B040D9F700C0000084E066
S1131120809346050895843009F05AC015BA83E0C7
S11311300E94EA0215BA85E090E0909345058093F9
S1131140440586E090E09093430580934205109215
S11311506100109260000BC00E943C018FEF90E789
S1131160A2E081509040A040E1F700C000008091CF
S1131170600090916100843B910574F315BA09C035
S11311808FEF90E7A2E081509040A040E1F700C0CB
S1131190000080E00E948A00A3E089399A0780F762
S11311A081E08093310585E0809346050E94D0015B
S11311B08AE090E090934505809344058CE090E0AC
S11311C09093430580934205B39B94C0B79B92C010
S11311D0B49B90C0B69B8EC0B59B8CC081E04FC0C1
S11311E0853009F0A4C015BA82E00E94EA0215BA5B
S11311F0B39908C0B79906C0B49B04C0B69B02C09B
S1131200B59984C00E943C01F3CF0E943C018FEF4A
S113121099EFA0E081509040A040E1F700C00000A9
S11312208091600090916100A1E089369A076CF387
S11312300E94BC011092310585E090E09093450531
S11312408093440586E090E09093430580934205A3
S1131250B39B61C0B79B5FC0B49B5DC0B69B5BC0D2
S1131260B59B59C089E090E090934505809344056F
S11312708CE090E0909343058093420583E0809353
S1131280470508950E943C018FEF90E7A2E081504A
S11312909040A040E1F700C0000022CEB39B6CCE8A
S11312A00E943C018FEF90E7A2E081509040A04063
S11312B0E1F700C0000084CE0E946B018FEF90E73D
S11312C0A2E081509040A040E1F700C000008DCE24
S11312D015BA1092610010926000DACE0E946B0180
S11312E08FEF90E7A2E081509040A040E1F700C06A
S11312F00000F0CE0E946B018FEF90E7A2E08150D6
S11313009040A040E1F700C000005ECF1092610061
S11313101092600085CF0E946B018FEF91EEA4E0E4
S113132081509040A040E1F700C0000091CF0895A3
S11313300E94D0010E946B018FEF90E7A2E08150E0
S11313409040A040E1F700C00000F4CF1F920F923C
S11313500FB60F9211242F933F938F939F93F8947A
S113136080913E0590913F05019690933F058093AF
S11313703E0520914405309145058217930709F4F1
S1131380AA9880913E0590913F05209142053091A5
S113139043058217930709F4AD98209140053091D5
S11313A041058217930709F4DD988431910541F4CE
S11313B010923F0510923E0585B3846285BBDD9A89
S11313C078949F918F913F912F910F900FBE0F9022
S11313D01F9018951F920F920FB60F9211242F93FE
S11313E08F939F93F894809160009091610001968F
S11313F0909361008093600023E18938920724F080
S1131400109261001092600078949F918F912F91B7
S11314100F900FBE0F901F9018951F920F920FB64A
S11314200F9211242F933F934F935F936F937F9366
S11314308F939F93AF93BF93EF93FF9315BA8091CC
S11314404605813089F48FEF93EDA0E381509040FD
S1131450A040E1F700C0000082E0809346050E94AE
S113146075000E94D90320C0982F9250923058F4EE
S11314708FEF97EAA1E681509040A040E1F700C0C9
S1131480000082E00DC08450823098F48FEF9BE717
S1131490A2E981509040A040E1F700C0000084E040
S11314A0809346050E94750010924E0510924D05DA
S11314B018BAFF91EF91BF91AF919F918F917F9156
S11314C06F915F914F913F912F910F900FBE0F90AD
S11314D01F901895CF93DF930F92CDB7DEB70E947C
S11314E03B03109246051092310510924E0510925E
S11314F04D050E94D0010E94BC0163E0E62E11E07C
S113150072E0F72E80914605823081F48091470580
S1131510833061F080E00E948A008B34910530F4BE
S1131520E0924605109331050E94D00100914705D1
S1131530013009F44AC0013038F0023009F49BC08C
S1131540033009F09CC09AC00E943C01B39B97C031
S1131550B79B95C015BA8FEF91EEA4E081509040EF
S1131560A040E1F700C00000B39B89C0B79B87C0CF
S113157080914805813069F0813028F0823099F0FB
S1131580833001F516C080914B0590914C0501976D
S113159005C080914B0590914C05019690934C05A4
S11315A080934B050FC08091490590914A0501969F
S11315B005C08091490590914A05019790934A0589
S11315C080934905109347055AC015BA0E949506A1
S11315D0823099F0833030F4882361F0813009F04F
S11315E04EC01AC0833051F1843009F048C0F092E3
S11315F0470545C00E9461023BC089830E942202C4
S11316009091480589819130B1F0913030F1923058
S113161039F1933069F52AC089830E94E3019091DE
S1131620480589819130F9F0913028F09230F1F039
S11316309330F1F412C0E09248051AC089830E94E5
S1131640AB02909148058981913081F0913040F04E
S1131650923019F0933061F406C08093480508C0B5
S11316600093480505C0F092480502C01092480551
S11316701092470504C00E945C0701C015BA8FEFA1
S113168090E7A2E081509040A040E1F700C0000044
S113169039CF81E090E09093500580934F0525E089
S11316A030E0309352052093510590935405809374
S11316B0530524E030E0309356052093550590936C
S11316C058058093570523E030E030935A05209362
S11316D0590590935C0580935B0542E050E050937C
S11316E05E0540935D0510923B0510923A05909378
S11316F03D0580933C051092370510923605909372
S11317003905809338051092330510923205909371
S113171035058093340530932E0520932D0586E0FE
S113172090E09093300580932F05089597FB092E40
S113173007260AD077FD04D00CD006D000201AF476
S1131740709561957F4F0895F6F7909581959F4F19
S11317500895AA1BBB1B51E107C0AA1FBB1FA617F4
S1131760B70710F0A61BB70B881F991F5A95A9F746
S113177080959095BC01CD010895EE0FFF1F059053
S10D1780F491E02D0994F894FFCFD2
S9030000FC
